{
  "contractName": "DeadToken",
  "abi": [
    {
      "inputs": [
        {
          "internalType": "uint256",
          "name": "_totalSupply",
          "type": "uint256"
        }
      ],
      "stateMutability": "nonpayable",
      "type": "constructor"
    },
    {
      "anonymous": false,
      "inputs": [
        {
          "indexed": true,
          "internalType": "address",
          "name": "_owner",
          "type": "address"
        },
        {
          "indexed": true,
          "internalType": "address",
          "name": "_spender",
          "type": "address"
        },
        {
          "indexed": false,
          "internalType": "uint256",
          "name": "_value",
          "type": "uint256"
        }
      ],
      "name": "Approval",
      "type": "event"
    },
    {
      "anonymous": false,
      "inputs": [
        {
          "indexed": true,
          "internalType": "address",
          "name": "_to",
          "type": "address"
        },
        {
          "indexed": false,
          "internalType": "uint256",
          "name": "_value",
          "type": "uint256"
        }
      ],
      "name": "Mint",
      "type": "event"
    },
    {
      "anonymous": false,
      "inputs": [
        {
          "indexed": true,
          "internalType": "address",
          "name": "_from",
          "type": "address"
        },
        {
          "indexed": true,
          "internalType": "address",
          "name": "_to",
          "type": "address"
        },
        {
          "indexed": false,
          "internalType": "uint256",
          "name": "_value",
          "type": "uint256"
        }
      ],
      "name": "Transfer",
      "type": "event"
    },
    {
      "inputs": [
        {
          "internalType": "address",
          "name": "",
          "type": "address"
        },
        {
          "internalType": "address",
          "name": "",
          "type": "address"
        }
      ],
      "name": "allowance",
      "outputs": [
        {
          "internalType": "uint256",
          "name": "",
          "type": "uint256"
        }
      ],
      "stateMutability": "view",
      "type": "function"
    },
    {
      "inputs": [],
      "name": "allowedMintTokens",
      "outputs": [
        {
          "internalType": "uint256",
          "name": "",
          "type": "uint256"
        }
      ],
      "stateMutability": "view",
      "type": "function"
    },
    {
      "inputs": [
        {
          "internalType": "address",
          "name": "",
          "type": "address"
        }
      ],
      "name": "balanceOf",
      "outputs": [
        {
          "internalType": "uint256",
          "name": "",
          "type": "uint256"
        }
      ],
      "stateMutability": "view",
      "type": "function"
    },
    {
      "inputs": [],
      "name": "decimal",
      "outputs": [
        {
          "internalType": "uint256",
          "name": "",
          "type": "uint256"
        }
      ],
      "stateMutability": "view",
      "type": "function"
    },
    {
      "inputs": [],
      "name": "deployer",
      "outputs": [
        {
          "internalType": "address",
          "name": "",
          "type": "address"
        }
      ],
      "stateMutability": "view",
      "type": "function"
    },
    {
      "inputs": [
        {
          "internalType": "address",
          "name": "",
          "type": "address"
        }
      ],
      "name": "freezeAmount",
      "outputs": [
        {
          "internalType": "uint256",
          "name": "",
          "type": "uint256"
        }
      ],
      "stateMutability": "view",
      "type": "function"
    },
    {
      "inputs": [
        {
          "internalType": "uint256",
          "name": "",
          "type": "uint256"
        }
      ],
      "name": "mintTimes",
      "outputs": [
        {
          "internalType": "uint256",
          "name": "",
          "type": "uint256"
        }
      ],
      "stateMutability": "view",
      "type": "function"
    },
    {
      "inputs": [],
      "name": "mintTimestamp",
      "outputs": [
        {
          "internalType": "uint256",
          "name": "",
          "type": "uint256"
        }
      ],
      "stateMutability": "view",
      "type": "function"
    },
    {
      "inputs": [],
      "name": "name",
      "outputs": [
        {
          "internalType": "string",
          "name": "",
          "type": "string"
        }
      ],
      "stateMutability": "view",
      "type": "function"
    },
    {
      "inputs": [],
      "name": "symbol",
      "outputs": [
        {
          "internalType": "string",
          "name": "",
          "type": "string"
        }
      ],
      "stateMutability": "view",
      "type": "function"
    },
    {
      "inputs": [],
      "name": "totalSupply",
      "outputs": [
        {
          "internalType": "uint256",
          "name": "",
          "type": "uint256"
        }
      ],
      "stateMutability": "view",
      "type": "function"
    },
    {
      "inputs": [
        {
          "internalType": "address",
          "name": "_to",
          "type": "address"
        },
        {
          "internalType": "uint256",
          "name": "_value",
          "type": "uint256"
        }
      ],
      "name": "transfer",
      "outputs": [
        {
          "internalType": "bool",
          "name": "success",
          "type": "bool"
        }
      ],
      "stateMutability": "payable",
      "type": "function"
    },
    {
      "inputs": [
        {
          "internalType": "address",
          "name": "_sender",
          "type": "address"
        },
        {
          "internalType": "uint256",
          "name": "_value",
          "type": "uint256"
        }
      ],
      "name": "approve",
      "outputs": [],
      "stateMutability": "nonpayable",
      "type": "function"
    },
    {
      "inputs": [
        {
          "internalType": "address",
          "name": "_from",
          "type": "address"
        },
        {
          "internalType": "address",
          "name": "_to",
          "type": "address"
        },
        {
          "internalType": "uint256",
          "name": "_value",
          "type": "uint256"
        }
      ],
      "name": "transferFrom",
      "outputs": [
        {
          "internalType": "bool",
          "name": "success",
          "type": "bool"
        }
      ],
      "stateMutability": "nonpayable",
      "type": "function"
    },
    {
      "inputs": [
        {
          "internalType": "address",
          "name": "_address",
          "type": "address"
        },
        {
          "internalType": "uint256",
          "name": "_value",
          "type": "uint256"
        }
      ],
      "name": "mintTokens",
      "outputs": [
        {
          "internalType": "bool",
          "name": "success",
          "type": "bool"
        }
      ],
      "stateMutability": "nonpayable",
      "type": "function"
    },
    {
      "inputs": [
        {
          "internalType": "uint256",
          "name": "_value",
          "type": "uint256"
        }
      ],
      "name": "freeze",
      "outputs": [
        {
          "internalType": "bool",
          "name": "success",
          "type": "bool"
        }
      ],
      "stateMutability": "nonpayable",
      "type": "function"
    },
    {
      "inputs": [
        {
          "internalType": "uint256",
          "name": "_value",
          "type": "uint256"
        }
      ],
      "name": "unfreeze",
      "outputs": [
        {
          "internalType": "bool",
          "name": "success",
          "type": "bool"
        }
      ],
      "stateMutability": "nonpayable",
      "type": "function"
    }
  ],
  "bytecode": "0x60806040526040518060400160405280600a81526020017f4465616420546f6b656e000000000000000000000000000000000000000000008152506001908051906020019062000051929190620001ab565b506040518060400160405280600381526020017f44544b0000000000000000000000000000000000000000000000000000000000815250600290805190602001906200009f929190620001ab565b506008600355348015620000b257600080fd5b5060405162001dbb38038062001dbb8339818101604052810190620000d891906200029b565b80600481905550336000806101000a81548173ffffffffffffffffffffffffffffffffffffffff021916908373ffffffffffffffffffffffffffffffffffffffff160217905550600454600860008060009054906101000a900473ffffffffffffffffffffffffffffffffffffffff1673ffffffffffffffffffffffffffffffffffffffff1673ffffffffffffffffffffffffffffffffffffffff1681526020019081526020016000206000828254620001939190620002fc565b92505081905550620f424060078190555050620003be565b828054620001b99062000388565b90600052602060002090601f016020900481019282620001dd576000855562000229565b82601f10620001f857805160ff191683800117855562000229565b8280016001018555821562000229579182015b82811115620002285782518255916020019190600101906200020b565b5b5090506200023891906200023c565b5090565b5b80821115620002575760008160009055506001016200023d565b5090565b600080fd5b6000819050919050565b620002758162000260565b81146200028157600080fd5b50565b60008151905062000295816200026a565b92915050565b600060208284031215620002b457620002b36200025b565b5b6000620002c48482850162000284565b91505092915050565b7f4e487b7100000000000000000000000000000000000000000000000000000000600052601160045260246000fd5b6000620003098262000260565b9150620003168362000260565b9250827fffffffffffffffffffffffffffffffffffffffffffffffffffffffffffffffff038211156200034e576200034d620002cd565b5b828201905092915050565b7f4e487b7100000000000000000000000000000000000000000000000000000000600052602260045260246000fd5b60006002820490506001821680620003a157607f821691505b60208210811415620003b857620003b762000359565b5b50919050565b6119ed80620003ce6000396000f3fe6080604052600436106100fe5760003560e01c806376809ce311610095578063d5f3948811610064578063d5f3948814610364578063d7a78db81461038f578063dd62ed3e146103cc578063e4f10a6514610409578063f0dda65c14610434576100fe565b806376809ce3146102a157806395d89b41146102cc5780639a7484dc146102f7578063a9059cbb14610334576100fe565b806323b872dd116100d157806323b872dd146101ad578063644205a3146101ea5780636623fc461461022757806370a0823114610264576100fe565b806306fdde0314610103578063095ea7b31461012e57806318160ddd146101575780631bc392ae14610182575b600080fd5b34801561010f57600080fd5b50610118610471565b60405161012591906111c7565b60405180910390f35b34801561013a57600080fd5b5061015560048036038101906101509190611282565b6104ff565b005b34801561016357600080fd5b5061016c61066b565b60405161017991906112d1565b60405180910390f35b34801561018e57600080fd5b50610197610671565b6040516101a491906112d1565b60405180910390f35b3480156101b957600080fd5b506101d460048036038101906101cf91906112ec565b610677565b6040516101e1919061135a565b60405180910390f35b3480156101f657600080fd5b50610211600480360381019061020c9190611375565b610969565b60405161021e91906112d1565b60405180910390f35b34801561023357600080fd5b5061024e60048036038101906102499190611375565b61098d565b60405161025b919061135a565b60405180910390f35b34801561027057600080fd5b5061028b600480360381019061028691906113a2565b610ac6565b60405161029891906112d1565b60405180910390f35b3480156102ad57600080fd5b506102b6610ade565b6040516102c391906112d1565b60405180910390f35b3480156102d857600080fd5b506102e1610ae4565b6040516102ee91906111c7565b60405180910390f35b34801561030357600080fd5b5061031e600480360381019061031991906113a2565b610b72565b60405161032b91906112d1565b60405180910390f35b61034e60048036038101906103499190611282565b610b8a565b60405161035b919061135a565b60405180910390f35b34801561037057600080fd5b50610379610d29565b60405161038691906113de565b60405180910390f35b34801561039b57600080fd5b506103b660048036038101906103b19190611375565b610d4d565b6040516103c3919061135a565b60405180910390f35b3480156103d857600080fd5b506103f360048036038101906103ee91906113f9565b610e86565b60405161040091906112d1565b60405180910390f35b34801561041557600080fd5b5061041e610eab565b60405161042b91906112d1565b60405180910390f35b34801561044057600080fd5b5061045b60048036038101906104569190611282565b610eb1565b604051610468919061135a565b60405180910390f35b6001805461047e90611468565b80601f01602080910402602001604051908101604052809291908181526020018280546104aa90611468565b80156104f75780601f106104cc576101008083540402835291602001916104f7565b820191906000526020600020905b8154815290600101906020018083116104da57829003601f168201915b505050505081565b80600860003373ffffffffffffffffffffffffffffffffffffffff1673ffffffffffffffffffffffffffffffffffffffff168152602001908152602001600020541015610581576040517f08c379a00000000000000000000000000000000000000000000000000000000081526004016105789061150c565b60405180910390fd5b80600a60003373ffffffffffffffffffffffffffffffffffffffff1673ffffffffffffffffffffffffffffffffffffffff16815260200190815260200160002060008473ffffffffffffffffffffffffffffffffffffffff1673ffffffffffffffffffffffffffffffffffffffff168152602001908152602001600020819055508173ffffffffffffffffffffffffffffffffffffffff163373ffffffffffffffffffffffffffffffffffffffff167f8c5be1e5ebec7d5bd14f71427d1e84f3dd0314c0f7b2291e5b200ac8c7c3b9258360405161065f91906112d1565b60405180910390a35050565b60045481565b60055481565b600081600a60008673ffffffffffffffffffffffffffffffffffffffff1673ffffffffffffffffffffffffffffffffffffffff16815260200190815260200160002060003373ffffffffffffffffffffffffffffffffffffffff1673ffffffffffffffffffffffffffffffffffffffff168152602001908152602001600020541015610738576040517f08c379a000000000000000000000000000000000000000000000000000000000815260040161072f90611578565b60405180910390fd5b81600860008673ffffffffffffffffffffffffffffffffffffffff1673ffffffffffffffffffffffffffffffffffffffff1681526020019081526020016000205410156107ba576040517f08c379a00000000000000000000000000000000000000000000000000000000081526004016107b19061160a565b60405180910390fd5b81600860008673ffffffffffffffffffffffffffffffffffffffff1673ffffffffffffffffffffffffffffffffffffffff16815260200190815260200160002060008282546108099190611659565b9250508190555081600860008573ffffffffffffffffffffffffffffffffffffffff1673ffffffffffffffffffffffffffffffffffffffff168152602001908152602001600020600082825461085f919061168d565b9250508190555081600a60008673ffffffffffffffffffffffffffffffffffffffff1673ffffffffffffffffffffffffffffffffffffffff16815260200190815260200160002060003373ffffffffffffffffffffffffffffffffffffffff1673ffffffffffffffffffffffffffffffffffffffff16815260200190815260200160002060008282546108f29190611659565b925050819055508273ffffffffffffffffffffffffffffffffffffffff168473ffffffffffffffffffffffffffffffffffffffff167fddf252ad1be2c89b69c2b068fc378daa952ba7f163c4a11628f55a4df523b3ef8460405161095691906112d1565b60405180910390a3600190509392505050565b6006818154811061097957600080fd5b906000526020600020016000915090505481565b600081600960003373ffffffffffffffffffffffffffffffffffffffff1673ffffffffffffffffffffffffffffffffffffffff168152602001908152602001600020541015610a11576040517f08c379a0000000000000000000000000000000000000000000000000000000008152600401610a089061172f565b60405180910390fd5b81600960003373ffffffffffffffffffffffffffffffffffffffff1673ffffffffffffffffffffffffffffffffffffffff1681526020019081526020016000206000828254610a609190611659565b9250508190555081600860003373ffffffffffffffffffffffffffffffffffffffff1673ffffffffffffffffffffffffffffffffffffffff1681526020019081526020016000206000828254610ab6919061168d565b9250508190555060019050919050565b60086020528060005260406000206000915090505481565b60035481565b60028054610af190611468565b80601f0160208091040260200160405190810160405280929190818152602001828054610b1d90611468565b8015610b6a5780601f10610b3f57610100808354040283529160200191610b6a565b820191906000526020600020905b815481529060010190602001808311610b4d57829003601f168201915b505050505081565b60096020528060005260406000206000915090505481565b600081600860003373ffffffffffffffffffffffffffffffffffffffff1673ffffffffffffffffffffffffffffffffffffffff168152602001908152602001600020541015610c0e576040517f08c379a0000000000000000000000000000000000000000000000000000000008152600401610c059061179b565b60405180910390fd5b81600860008573ffffffffffffffffffffffffffffffffffffffff1673ffffffffffffffffffffffffffffffffffffffff1681526020019081526020016000206000828254610c5d919061168d565b9250508190555081600860003373ffffffffffffffffffffffffffffffffffffffff1673ffffffffffffffffffffffffffffffffffffffff1681526020019081526020016000206000828254610cb39190611659565b925050819055508273ffffffffffffffffffffffffffffffffffffffff163373ffffffffffffffffffffffffffffffffffffffff167fddf252ad1be2c89b69c2b068fc378daa952ba7f163c4a11628f55a4df523b3ef84604051610d1791906112d1565b60405180910390a36001905092915050565b60008054906101000a900473ffffffffffffffffffffffffffffffffffffffff1681565b600081600860003373ffffffffffffffffffffffffffffffffffffffff1673ffffffffffffffffffffffffffffffffffffffff168152602001908152602001600020541015610dd1576040517f08c379a0000000000000000000000000000000000000000000000000000000008152600401610dc890611807565b60405180910390fd5b81600860003373ffffffffffffffffffffffffffffffffffffffff1673ffffffffffffffffffffffffffffffffffffffff1681526020019081526020016000206000828254610e209190611659565b9250508190555081600960003373ffffffffffffffffffffffffffffffffffffffff1673ffffffffffffffffffffffffffffffffffffffff1681526020019081526020016000206000828254610e76919061168d565b9250508190555060019050919050565b600a602052816000526040600020602052806000526040600020600091509150505481565b60075481565b6000600554421015610ef8576040517f08c379a0000000000000000000000000000000000000000000000000000000008152600401610eef90611873565b60405180910390fd5b600754821115610f3d576040517f08c379a0000000000000000000000000000000000000000000000000000000008152600401610f349061192b565b60405180910390fd5b60008054906101000a900473ffffffffffffffffffffffffffffffffffffffff1673ffffffffffffffffffffffffffffffffffffffff163373ffffffffffffffffffffffffffffffffffffffff1614610fcb576040517f08c379a0000000000000000000000000000000000000000000000000000000008152600401610fc290611997565b60405180910390fd5b624f1a0042610fda919061168d565b600581905550600642908060018154018082558091505060019003906000526020600020016000909190919091505581600860008573ffffffffffffffffffffffffffffffffffffffff1673ffffffffffffffffffffffffffffffffffffffff1681526020019081526020016000206000828254611058919061168d565b9250508190555081600860008060009054906101000a900473ffffffffffffffffffffffffffffffffffffffff1673ffffffffffffffffffffffffffffffffffffffff1673ffffffffffffffffffffffffffffffffffffffff16815260200190815260200160002060008282546110cf9190611659565b925050819055508273ffffffffffffffffffffffffffffffffffffffff167f0f6798a560793a54c3bcfe86a93cde1e73087d944c0ea20544137d41213968858360405161111c91906112d1565b60405180910390a26001905092915050565b600081519050919050565b600082825260208201905092915050565b60005b8381101561116857808201518184015260208101905061114d565b83811115611177576000848401525b50505050565b6000601f19601f8301169050919050565b60006111998261112e565b6111a38185611139565b93506111b381856020860161114a565b6111bc8161117d565b840191505092915050565b600060208201905081810360008301526111e1818461118e565b905092915050565b600080fd5b600073ffffffffffffffffffffffffffffffffffffffff82169050919050565b6000611219826111ee565b9050919050565b6112298161120e565b811461123457600080fd5b50565b60008135905061124681611220565b92915050565b6000819050919050565b61125f8161124c565b811461126a57600080fd5b50565b60008135905061127c81611256565b92915050565b60008060408385031215611299576112986111e9565b5b60006112a785828601611237565b92505060206112b88582860161126d565b9150509250929050565b6112cb8161124c565b82525050565b60006020820190506112e660008301846112c2565b92915050565b600080600060608486031215611305576113046111e9565b5b600061131386828701611237565b935050602061132486828701611237565b92505060406113358682870161126d565b9150509250925092565b60008115159050919050565b6113548161133f565b82525050565b600060208201905061136f600083018461134b565b92915050565b60006020828403121561138b5761138a6111e9565b5b60006113998482850161126d565b91505092915050565b6000602082840312156113b8576113b76111e9565b5b60006113c684828501611237565b91505092915050565b6113d88161120e565b82525050565b60006020820190506113f360008301846113cf565b92915050565b600080604083850312156114105761140f6111e9565b5b600061141e85828601611237565b925050602061142f85828601611237565b9150509250929050565b7f4e487b7100000000000000000000000000000000000000000000000000000000600052602260045260246000fd5b6000600282049050600182168061148057607f821691505b6020821081141561149457611493611439565b5b50919050565b7f496e7375666669656369656e7420746f6b656e7320666f7220617070726f766160008201527f6c00000000000000000000000000000000000000000000000000000000000000602082015250565b60006114f6602183611139565b91506115018261149a565b604082019050919050565b60006020820190508181036000830152611525816114e9565b9050919050565b7f496e73756666696369656e7420616c6c6f77616e636500000000000000000000600082015250565b6000611562601683611139565b915061156d8261152c565b602082019050919050565b6000602082019050818103600083015261159181611555565b9050919050565b7f496e737375666669656369656e742062616c616e636520746f20636f6d706c6560008201527f7465207472616e73616374696f6e200000000000000000000000000000000000602082015250565b60006115f4602f83611139565b91506115ff82611598565b604082019050919050565b60006020820190508181036000830152611623816115e7565b9050919050565b7f4e487b7100000000000000000000000000000000000000000000000000000000600052601160045260246000fd5b60006116648261124c565b915061166f8361124c565b9250828210156116825761168161162a565b5b828203905092915050565b60006116988261124c565b91506116a38361124c565b9250827fffffffffffffffffffffffffffffffffffffffffffffffffffffffffffffffff038211156116d8576116d761162a565b5b828201905092915050565b7f496e7375666669656369656e7420746f6b656e7320746f20756e667265657a65600082015250565b6000611719602083611139565b9150611724826116e3565b602082019050919050565b600060208201905081810360008301526117488161170c565b9050919050565b7f496e7375666669656369656e7420746f6b656e73000000000000000000000000600082015250565b6000611785601483611139565b91506117908261174f565b602082019050919050565b600060208201905081810360008301526117b481611778565b9050919050565b7f496e7375666669656369656e7420746f6b656e7320746f20667265657a650000600082015250565b60006117f1601e83611139565b91506117fc826117bb565b602082019050919050565b60006020820190508181036000830152611820816117e4565b9050919050565b7f6d696e7454696d657374616d70206e6f74207265616368656400000000000000600082015250565b600061185d601983611139565b915061186882611827565b602082019050919050565b6000602082019050818103600083015261188c81611850565b9050919050565b7f546865206e756d62657220737065636966696564206973206d6f72652074686160008201527f6e2074686520616c6c6f776564206d696e7420746f6b656e732061742074686560208201527f2074696d65000000000000000000000000000000000000000000000000000000604082015250565b6000611915604583611139565b915061192082611893565b606082019050919050565b6000602082019050818103600083015261194481611908565b9050919050565b7f5265737472696374656420746f206465706c6f79657200000000000000000000600082015250565b6000611981601683611139565b915061198c8261194b565b602082019050919050565b600060208201905081810360008301526119b081611974565b905091905056fea264697066735822122047b2d84ee1f94b0e75f91343a4a7b02b4450af0a0fa8aaf4c20d7885ebd505ea64736f6c634300080c0033",
  "immutableReferences": {},
  "source": "// SPDX-License-Identifier: MIT\r\npragma solidity ^0.8.12;\r\n\r\ncontract DeadToken {\r\n    address public deployer;\r\n    string public name = \"Dead Token\";\r\n    string public symbol = \"DTK\";\r\n    uint256 public decimal = 8;\r\n\r\n    uint256 public totalSupply;\r\n    uint256 public mintTimestamp;\r\n    uint256[] public mintTimes;\r\n    uint256 public allowedMintTokens;\r\n\r\n    mapping(address => uint256) public balanceOf;\r\n    mapping(address => uint256) public freezeAmount;\r\n    mapping(address => mapping(address => uint256)) public allowance;\r\n\r\n    constructor(uint256 _totalSupply) {\r\n        totalSupply = _totalSupply;\r\n        deployer = msg.sender;\r\n        balanceOf[deployer] += totalSupply;\r\n        allowedMintTokens = 1000000;\r\n    }\r\n\r\n    event Transfer(address indexed _from, address indexed _to, uint256 _value);\r\n    event Approval(\r\n        address indexed _owner,\r\n        address indexed _spender,\r\n        uint256 _value\r\n    );\r\n    event Mint(address indexed _to, uint256 _value);\r\n\r\n    function transfer(address _to, uint256 _value)\r\n        public\r\n        payable\r\n        returns (bool success)\r\n    {\r\n        require(balanceOf[msg.sender] >= _value, \"Insuffiecient tokens\");\r\n        balanceOf[_to] += _value;\r\n        balanceOf[msg.sender] -= _value;\r\n        emit Transfer(msg.sender, _to, _value);\r\n        return true;\r\n    }\r\n\r\n    function approve(address _sender, uint256 _value) public {\r\n        require(\r\n            balanceOf[msg.sender] >= _value,\r\n            \"Insuffiecient tokens for approval\"\r\n        );\r\n        allowance[msg.sender][_sender] = _value;\r\n        emit Approval(msg.sender, _sender, _value);\r\n    }\r\n\r\n    function transferFrom(\r\n        address _from,\r\n        address _to,\r\n        uint256 _value\r\n    ) public returns (bool success) {\r\n        require(\r\n            allowance[_from][msg.sender] >= _value,\r\n            \"Insufficient allowance\"\r\n        );\r\n        require(\r\n            balanceOf[_from] >= _value,\r\n            \"Inssuffiecient balance to complete transaction \"\r\n        );\r\n        balanceOf[_from] -= _value;\r\n        balanceOf[_to] += _value;\r\n        allowance[_from][msg.sender] -= _value;\r\n        emit Transfer(_from, _to, _value);\r\n        return true;\r\n    }\r\n\r\n    function mintTokens(address _address, uint256 _value)\r\n        public\r\n        returns (bool success)\r\n    {\r\n        require(block.timestamp >= mintTimestamp, \"mintTimestamp not reached\");\r\n        require(\r\n            _value <= allowedMintTokens,\r\n            \"The number specified is more than the allowed mint tokens at the time\"\r\n        );\r\n        require(msg.sender == deployer, \"Restricted to deployer\");\r\n\r\n        // Increase the mintTimestamp by 6 months\r\n        mintTimestamp = block.timestamp + 60 * 24 * 3600;\r\n        mintTimes.push(block.timestamp);\r\n        balanceOf[_address] += _value;\r\n        balanceOf[deployer] -= _value;\r\n\r\n        emit Mint(_address, _value);\r\n        return true;\r\n    }\r\n\r\n    function freeze(uint256 _value) public returns (bool success) {\r\n        require(\r\n            balanceOf[msg.sender] >= _value,\r\n            \"Insuffiecient tokens to freeze\"\r\n        );\r\n\r\n        balanceOf[msg.sender] -= _value;\r\n        freezeAmount[msg.sender] += _value;\r\n        return true;\r\n    }\r\n\r\n    function unfreeze(uint256 _value) public returns (bool success) {\r\n        require(\r\n            freezeAmount[msg.sender] >= _value,\r\n            \"Insuffiecient tokens to unfreeze\"\r\n        );\r\n\r\n        freezeAmount[msg.sender] -= _value;\r\n        balanceOf[msg.sender] += _value;\r\n        return true;\r\n    }\r\n}\r\n",
  "sourcePath": "P:\\Web3 projects\\DeadToken\\contracts\\DeadToken.sol",
  "compiler": {
    "name": "solc",
    "version": "0.8.12+commit.f00d7308.Emscripten.clang"
  },
  "schemaVersion": "3.4.6",
  "updatedAt": "2022-04-06T13:35:49.002Z",
  "devdoc": {
    "kind": "dev",
    "methods": {},
    "version": 1
  },
  "userdoc": {
    "kind": "user",
    "methods": {},
    "version": 1
  }
}