{
  "contractName": "TokenSale",
  "abi": [
    {
      "inputs": [
        {
          "internalType": "contract DeadToken",
          "name": "_address",
          "type": "address"
        },
        {
          "internalType": "uint256",
          "name": "_tokenPrice",
          "type": "uint256"
        },
        {
          "internalType": "address payable",
          "name": "_admin",
          "type": "address"
        }
      ],
      "stateMutability": "nonpayable",
      "type": "constructor"
    },
    {
      "anonymous": false,
      "inputs": [
        {
          "indexed": true,
          "internalType": "address",
          "name": "_to",
          "type": "address"
        },
        {
          "indexed": false,
          "internalType": "uint256",
          "name": "_value",
          "type": "uint256"
        }
      ],
      "name": "Sell",
      "type": "event"
    },
    {
      "inputs": [],
      "name": "tokenContract",
      "outputs": [
        {
          "internalType": "contract DeadToken",
          "name": "",
          "type": "address"
        }
      ],
      "stateMutability": "view",
      "type": "function"
    },
    {
      "inputs": [],
      "name": "tokenSold",
      "outputs": [
        {
          "internalType": "uint256",
          "name": "",
          "type": "uint256"
        }
      ],
      "stateMutability": "view",
      "type": "function"
    },
    {
      "inputs": [
        {
          "internalType": "uint256",
          "name": "_value",
          "type": "uint256"
        }
      ],
      "name": "BuyToken",
      "outputs": [
        {
          "internalType": "bool",
          "name": "success",
          "type": "bool"
        }
      ],
      "stateMutability": "payable",
      "type": "function"
    },
    {
      "inputs": [],
      "name": "getContract",
      "outputs": [
        {
          "internalType": "uint256",
          "name": "",
          "type": "uint256"
        }
      ],
      "stateMutability": "view",
      "type": "function"
    }
  ],
  "bytecode": "0x60806040526302faf08060025534801561001857600080fd5b506040516200099338038062000993833981810160405281019061003c91906101b5565b82600460006101000a81548173ffffffffffffffffffffffffffffffffffffffff021916908373ffffffffffffffffffffffffffffffffffffffff16021790555081600181905550806000806101000a81548173ffffffffffffffffffffffffffffffffffffffff021916908373ffffffffffffffffffffffffffffffffffffffff160217905550505050610208565b600080fd5b600073ffffffffffffffffffffffffffffffffffffffff82169050919050565b60006100fc826100d1565b9050919050565b600061010e826100f1565b9050919050565b61011e81610103565b811461012957600080fd5b50565b60008151905061013b81610115565b92915050565b6000819050919050565b61015481610141565b811461015f57600080fd5b50565b6000815190506101718161014b565b92915050565b6000610182826100d1565b9050919050565b61019281610177565b811461019d57600080fd5b50565b6000815190506101af81610189565b92915050565b6000806000606084860312156101ce576101cd6100cc565b5b60006101dc8682870161012c565b93505060206101ed86828701610162565b92505060406101fe868287016101a0565b9150509250925092565b61077b80620002186000396000f3fe60806040526004361061003f5760003560e01c8063519ee19e1461004457806355a373d61461006f578063958f85bd1461009a578063fcb0368c146100c5575b600080fd5b34801561005057600080fd5b506100596100f5565b6040516100669190610384565b60405180910390f35b34801561007b57600080fd5b506100846100fb565b604051610091919061041e565b60405180910390f35b3480156100a657600080fd5b506100af610121565b6040516100bc9190610384565b60405180910390f35b6100df60048036038101906100da919061046a565b6101e4565b6040516100ec91906104b2565b60405180910390f35b60035481565b600460009054906101000a900473ffffffffffffffffffffffffffffffffffffffff1681565b6000600460009054906101000a900473ffffffffffffffffffffffffffffffffffffffff1673ffffffffffffffffffffffffffffffffffffffff166370a0823160008054906101000a900473ffffffffffffffffffffffffffffffffffffffff166040518263ffffffff1660e01b815260040161019e91906104ee565b602060405180830381865afa1580156101bb573d6000803e3d6000fd5b505050506040513d601f19601f820116820180604052508101906101df919061051e565b905090565b600034600154836101f5919061057a565b1115610236576040517f08c379a000000000000000000000000000000000000000000000000000000000815260040161022d90610657565b60405180910390fd5b81600460009054906101000a900473ffffffffffffffffffffffffffffffffffffffff1673ffffffffffffffffffffffffffffffffffffffff166370a08231306040518263ffffffff1660e01b81526004016102929190610698565b602060405180830381865afa1580156102af573d6000803e3d6000fd5b505050506040513d601f19601f820116820180604052508101906102d3919061051e565b1015610314576040517f08c379a000000000000000000000000000000000000000000000000000000000815260040161030b90610725565b60405180910390fd5b3373ffffffffffffffffffffffffffffffffffffffff167f5e5e995ce3133561afceaa51a9a154d5db228cd7525d34df5185582c18d3df098360405161035a9190610384565b60405180910390a260019050919050565b6000819050919050565b61037e8161036b565b82525050565b60006020820190506103996000830184610375565b92915050565b600073ffffffffffffffffffffffffffffffffffffffff82169050919050565b6000819050919050565b60006103e46103df6103da8461039f565b6103bf565b61039f565b9050919050565b60006103f6826103c9565b9050919050565b6000610408826103eb565b9050919050565b610418816103fd565b82525050565b6000602082019050610433600083018461040f565b92915050565b600080fd5b6104478161036b565b811461045257600080fd5b50565b6000813590506104648161043e565b92915050565b6000602082840312156104805761047f610439565b5b600061048e84828501610455565b91505092915050565b60008115159050919050565b6104ac81610497565b82525050565b60006020820190506104c760008301846104a3565b92915050565b60006104d8826103eb565b9050919050565b6104e8816104cd565b82525050565b600060208201905061050360008301846104df565b92915050565b6000815190506105188161043e565b92915050565b60006020828403121561053457610533610439565b5b600061054284828501610509565b91505092915050565b7f4e487b7100000000000000000000000000000000000000000000000000000000600052601160045260246000fd5b60006105858261036b565b91506105908361036b565b9250817fffffffffffffffffffffffffffffffffffffffffffffffffffffffffffffffff04831182151516156105c9576105c861054b565b5b828202905092915050565b600082825260208201905092915050565b7f496e73756666696369656e742066756e647320746f207075726368617365207460008201527f6f6b656e73000000000000000000000000000000000000000000000000000000602082015250565b60006106416025836105d4565b915061064c826105e5565b604082019050919050565b6000602082019050818103600083015261067081610634565b9050919050565b60006106828261039f565b9050919050565b61069281610677565b82525050565b60006020820190506106ad6000830184610689565b92915050565b7f496e73756666696369656e7420746f6b656e7320746f20636f6d706c6574652060008201527f7265717565737400000000000000000000000000000000000000000000000000602082015250565b600061070f6027836105d4565b915061071a826106b3565b604082019050919050565b6000602082019050818103600083015261073e81610702565b905091905056fea2646970667358221220b28d10f2163abd0671611d8852491e7a331aafaf8f259600ea56f101adbd43e864736f6c634300080c0033",
  "immutableReferences": {},
  "source": "// SPDX-License-Identifier: MIT\r\npragma solidity ^0.8.12;\r\nimport \"./DeadToken.sol\";\r\n\r\ncontract TokenSale {\r\n    address payable admin;\r\n    uint256 tokenPrice;\r\n    uint256 fixedTokenSale = 50000000;\r\n    uint256 public tokenSold;\r\n    DeadToken public tokenContract;\r\n\r\n    constructor(\r\n        DeadToken _address,\r\n        uint256 _tokenPrice,\r\n        address payable _admin\r\n    ) {\r\n        tokenContract = _address;\r\n        tokenPrice = _tokenPrice;\r\n        admin = _admin;\r\n    }\r\n\r\n    event Sell(address indexed _to, uint256 _value);\r\n\r\n    function BuyToken(uint256 _value) public payable returns (bool success) {\r\n        require(\r\n            _value * tokenPrice <= msg.value,\r\n            \"Insufficient funds to purchase tokens\"\r\n        );\r\n        require(\r\n            tokenContract.balanceOf(address(this)) >= _value,\r\n            \"Insufficient tokens to complete request\"\r\n        );\r\n\r\n        // tokenContract.balanceOf[msg.sender] += _value;\r\n        // tokenContract.balanceOf[address(this)] -= _value;\r\n        // tokenSold += _value;\r\n\r\n        emit Sell(msg.sender, _value);\r\n        return true;\r\n    }\r\n\r\n    function getContract() public view returns (uint256) {\r\n        return tokenContract.balanceOf(admin);\r\n    }\r\n}\r\n",
  "sourcePath": "P:\\Web3 projects\\DeadToken\\contracts\\TokenSale.sol",
  "compiler": {
    "name": "solc",
    "version": "0.8.12+commit.f00d7308.Emscripten.clang"
  },
  "schemaVersion": "3.4.6",
  "updatedAt": "2022-04-06T22:21:31.453Z",
  "devdoc": {
    "kind": "dev",
    "methods": {},
    "version": 1
  },
  "userdoc": {
    "kind": "user",
    "methods": {},
    "version": 1
  }
}